{
  "contractName": "SimpleContract",
  "abi": [
    {
      "anonymous": false,
      "inputs": [
        {
          "indexed": false,
          "name": "from",
          "type": "address"
        },
        {
          "indexed": false,
          "name": "a",
          "type": "uint256"
        },
        {
          "indexed": false,
          "name": "b",
          "type": "uint256"
        },
        {
          "indexed": false,
          "name": "result",
          "type": "uint256"
        }
      ],
      "name": "SimpleEvent",
      "type": "event"
    },
    {
      "constant": false,
      "inputs": [
        {
          "name": "a",
          "type": "uint256"
        },
        {
          "name": "b",
          "type": "uint256"
        }
      ],
      "name": "calculate",
      "outputs": [],
      "payable": false,
      "stateMutability": "nonpayable",
      "type": "function"
    }
  ],
  "bytecode": "0x608060405234801561001057600080fd5b50610134806100206000396000f3fe608060405234801561001057600080fd5b506004361061002b5760003560e01c80638dfa436314610030575b600080fd5b6100666004803603604081101561004657600080fd5b810190808035906020019092919080359060200190929190505050610068565b005b600061007483836100f6565b90507f48e874ee0749c5674bd9c50c188b6fd5f09fbae0453622508544c2f42882774633848484604051808573ffffffffffffffffffffffffffffffffffffffff1673ffffffffffffffffffffffffffffffffffffffff16815260200184815260200183815260200182815260200194505050505060405180910390a1505050565b6000808284019050809150509291505056fea165627a7a72305820e5fb7e75a7d7d1949f5800b79ef12b26d154ffdb6ccee18191632d6b35bb8c2b0029",
  "source": "pragma solidity >=0.4.21 <0.6.0;\r\ncontract SimpleContract {\r\n   event SimpleEvent(address from, uint a, uint b, uint result);\r\n\r\n   function add(uint a, uint b) private pure returns (uint){\r\n       uint result;\r\n       result = a + b;\r\n       return result;\r\n   }\r\n\r\n   function calculate(uint a, uint b) public {\r\n      uint result;\r\n      result = add(a, b);\r\n      emit SimpleEvent(msg.sender, a, b, result);\r\n   }\r\n}",
  "sourcePath": "C:/Users/Rossi/git/MSEP_2019_2/huy-nguyen/event-trigger-example/contracts/SimpleContract.sol",
  "compiler": {
    "name": "solc",
    "version": "0.5.8+commit.23d335f2.Emscripten.clang"
  },
  "schemaVersion": "3.0.15",
  "updatedAt": "2019-09-05T01:53:05.719Z",
  "devdoc": {
    "methods": {}
  },
  "userdoc": {
    "methods": {}
  }
}