{
  "contractName": "SimpleContract",
  "abi": [
    {
      "constant": true,
      "inputs": [],
      "name": "datastream",
      "outputs": [
        {
          "name": "",
          "type": "string"
        }
      ],
      "payable": false,
      "stateMutability": "view",
      "type": "function"
    },
    {
      "anonymous": false,
      "inputs": [
        {
          "indexed": false,
          "name": "from",
          "type": "address"
        },
        {
          "indexed": false,
          "name": "a",
          "type": "uint256"
        },
        {
          "indexed": false,
          "name": "b",
          "type": "uint256"
        },
        {
          "indexed": false,
          "name": "result",
          "type": "uint256"
        }
      ],
      "name": "SimpleEvent",
      "type": "event"
    },
    {
      "constant": false,
      "inputs": [
        {
          "name": "a",
          "type": "uint256"
        },
        {
          "name": "b",
          "type": "uint256"
        }
      ],
      "name": "calculate",
      "outputs": [],
      "payable": false,
      "stateMutability": "nonpayable",
      "type": "function"
    },
    {
      "constant": false,
      "inputs": [
        {
          "name": "name",
          "type": "string"
        }
      ],
      "name": "storeDatastream",
      "outputs": [],
      "payable": false,
      "stateMutability": "nonpayable",
      "type": "function"
    }
  ],
  "bytecode": "0x608060405234801561001057600080fd5b506103e5806100206000396000f3fe608060405234801561001057600080fd5b50600436106100415760003560e01c8063284d7a251461004657806368581b9a146100c95780638dfa436314610184575b600080fd5b61004e6101bc565b6040518080602001828103825283818151815260200191508051906020019080838360005b8381101561008e578082015181840152602081019050610073565b50505050905090810190601f1680156100bb5780820380516001836020036101000a031916815260200191505b509250505060405180910390f35b610182600480360360208110156100df57600080fd5b81019080803590602001906401000000008111156100fc57600080fd5b82018360208201111561010e57600080fd5b8035906020019184600183028401116401000000008311171561013057600080fd5b91908080601f016020809104026020016040519081016040528093929190818152602001838380828437600081840152601f19601f82011690508083019250505050505050919291929050505061025a565b005b6101ba6004803603604081101561019a57600080fd5b810190808035906020019092919080359060200190929190505050610274565b005b60008054600181600116156101000203166002900480601f0160208091040260200160405190810160405280929190818152602001828054600181600116156101000203166002900480156102525780601f1061022757610100808354040283529160200191610252565b820191906000526020600020905b81548152906001019060200180831161023557829003601f168201915b505050505081565b8060009080519060200190610270929190610314565b5050565b60006102808383610302565b90507f48e874ee0749c5674bd9c50c188b6fd5f09fbae0453622508544c2f42882774633848484604051808573ffffffffffffffffffffffffffffffffffffffff1673ffffffffffffffffffffffffffffffffffffffff16815260200184815260200183815260200182815260200194505050505060405180910390a1505050565b60008082840190508091505092915050565b828054600181600116156101000203166002900490600052602060002090601f016020900481019282601f1061035557805160ff1916838001178555610383565b82800160010185558215610383579182015b82811115610382578251825591602001919060010190610367565b5b5090506103909190610394565b5090565b6103b691905b808211156103b257600081600090555060010161039a565b5090565b9056fea165627a7a72305820c8909b91fb6845334536be9ec6f96234761ccb4f2b508aa793cfa4c9eb2356150029",
  "source": "pragma solidity >=0.4.21 <0.6.0;\r\ncontract SimpleContract {\r\n   event SimpleEvent(address from, uint a, uint b, uint result);\r\n   string public datastream;\r\n   function add(uint a, uint b) private pure returns (uint){\r\n       uint result;\r\n       result = a + b;\r\n       return result;\r\n   }\r\n\r\n   function calculate(uint a, uint b) public {\r\n      uint result;\r\n      result = add(a, b);\r\n      emit SimpleEvent(msg.sender, a, b, result);\r\n   }\r\n\r\n   function storeDatastream(string memory name) public {\r\n      datastream = name;\r\n   }\r\n}",
  "sourcePath": "C:/Users/Rossi/git/MSEP_2019_2/huy-nguyen/event-trigger-example/contracts/SimpleContract.sol",
  "compiler": {
    "name": "solc",
    "version": "0.5.8+commit.23d335f2.Emscripten.clang"
  },
  "schemaVersion": "3.0.15",
  "updatedAt": "2019-09-09T00:35:33.694Z",
  "devdoc": {
    "methods": {}
  },
  "userdoc": {
    "methods": {}
  }
}