{
  "contractName": "MyContract",
  "abi": [
    {
      "constant": true,
      "inputs": [
        {
          "name": "a",
          "type": "uint256"
        },
        {
          "name": "b",
          "type": "uint256"
        }
      ],
      "name": "add",
      "outputs": [
        {
          "name": "",
          "type": "uint256"
        }
      ],
      "payable": false,
      "stateMutability": "pure",
      "type": "function"
    }
  ],
  "bytecode": "0x608060405234801561001057600080fd5b5060af8061001f6000396000f3fe6080604052348015600f57600080fd5b506004361060285760003560e01c8063771602f714602d575b600080fd5b606060048036036040811015604157600080fd5b8101908080359060200190929190803590602001909291905050506076565b6040518082815260200191505060405180910390f35b600081830190509291505056fea165627a7a72305820c156dadcf621f1b5781a0f23c1334cac1abc3fcca5cacc1b031f2543eafd96960029",
  "source": "pragma solidity ^ 0.5.8;\ncontract MyContract {\n    //event Log(address addr);\n    // constructor () public {\n        \n    // }\n    function add(uint256 a, uint256 b) public pure returns(uint256) {\n        return a + b;\n    }\n}",
  "sourcePath": "/Users/meghavipatel/todoListApi/SmartContract_MSEP2/contracts/MyContract.sol",
  "compiler": {
    "name": "solc",
    "version": "0.5.8+commit.23d335f2.Emscripten.clang"
  },
  "schemaVersion": "3.0.14",
  "updatedAt": "2019-08-30T05:33:30.676Z",
  "devdoc": {
    "methods": {}
  },
  "userdoc": {
    "methods": {}
  }
}