{
  "contractName": "MyContract",
  "abi": [
    {
      "anonymous": false,
      "inputs": [
        {
          "indexed": false,
          "name": "addr",
          "type": "address"
        }
      ],
      "name": "Log",
      "type": "event"
    },
    {
      "anonymous": false,
      "inputs": [
        {
          "indexed": false,
          "name": "msg",
          "type": "string"
        }
      ],
      "name": "SimpleEvent",
      "type": "event"
    },
    {
      "constant": true,
      "inputs": [
        {
          "name": "a",
          "type": "uint256"
        },
        {
          "name": "b",
          "type": "uint256"
        }
      ],
      "name": "add",
      "outputs": [
        {
          "name": "",
          "type": "uint256"
        }
      ],
      "payable": false,
      "stateMutability": "pure",
      "type": "function"
    },
    {
      "constant": false,
      "inputs": [],
      "name": "fireEvent",
      "outputs": [],
      "payable": false,
      "stateMutability": "nonpayable",
      "type": "function"
    }
  ],
  "bytecode": "0x608060405234801561001057600080fd5b50610134806100206000396000f3fe608060405234801561001057600080fd5b50600436106100365760003560e01c80634185df151461003b578063771602f714610045575b600080fd5b610043610091565b005b61007b6004803603604081101561005b57600080fd5b8101908080359060200190929190803590602001909291905050506100fb565b6040518082815260200191505060405180910390f35b7f16c23f162b48b065522955c91a071144f6b6079f7585ecd5f239601dd3ab4a4a60405180806020018281038252600f8152602001807f66697265642061206d657373616765000000000000000000000000000000000081525060200191505060405180910390a1565b600081830190509291505056fea165627a7a723058201578918ed32eb17cebc9a02aa2301c0a6e368cb114213447b720df7db7a33eac0029",
  "source": "pragma solidity ^ 0.5.8;\ncontract MyContract {\n    //event Log(address addr);\n    // constructor () public {\n    // }\n    event Log(address addr);\n    event SimpleEvent(string msg);\n    function add(uint256 a, uint256 b) public pure returns(uint256) {\n        return a + b;\n    }\n\n    function fireEvent() public {\n        emit SimpleEvent('fired a message');\n    }\n}",
  "sourcePath": "/Users/meghavipatel/Documents/GitHub/MSEP_2019_2/Smart_contract_Megha/SmartContract_Demo/contracts/MyContract.sol",
  "compiler": {
    "name": "solc",
    "version": "0.5.8+commit.23d335f2.Emscripten.clang"
  },
  "schemaVersion": "3.0.14",
  "updatedAt": "2019-09-16T03:14:10.343Z",
  "devdoc": {
    "methods": {}
  },
  "userdoc": {
    "methods": {}
  }
}