{
  "contractName": "MyContract",
  "abi": [
    {
      "anonymous": false,
      "inputs": [
        {
          "indexed": false,
          "name": "a",
          "type": "uint256"
        },
        {
          "indexed": false,
          "name": "b",
          "type": "uint256"
        }
      ],
      "name": "Instructor",
      "type": "event"
    },
    {
      "constant": false,
      "inputs": [
        {
          "name": "_a",
          "type": "uint256"
        },
        {
          "name": "_b",
          "type": "uint256"
        }
      ],
      "name": "MyNewContract",
      "outputs": [],
      "payable": false,
      "stateMutability": "nonpayable",
      "type": "function"
    },
    {
      "constant": true,
      "inputs": [],
      "name": "add",
      "outputs": [
        {
          "name": "",
          "type": "uint256"
        }
      ],
      "payable": false,
      "stateMutability": "view",
      "type": "function"
    }
  ],
  "bytecode": "0x608060405234801561001057600080fd5b50610118806100206000396000f3fe6080604052348015600f57600080fd5b506004361060325760003560e01c80634f2be91f14603757806370c1c9d9146053575b600080fd5b603d6088565b6040518082815260200191505060405180910390f35b608660048036036040811015606757600080fd5b810190808035906020019092919080359060200190929190505050609b565b005b6000806001546000540190508091505090565b81600081905550806001819055507f5990ee6a481443b5906830da9923af6e96f5ce3e605b6dffec5d530093d244ef8282604051808381526020018281526020019250505060405180910390a1505056fea165627a7a723058204644332fcbbddc0fae6418bbda9662048ad053dba37b4e5a374887be91251fa60029",
  "source": "pragma solidity ^ 0.5.8;\ncontract MyContract{\n    uint256 a;\n    uint256 b;\n    event Instructor(uint256 a, uint256 b);\n    function MyNewContract(uint256 _a, uint256 _b) public {\n       a = _a;\n       b = _b;\n       emit Instructor(_a, _b);\n    }\n\n    function add() view public returns(uint256) {\n        uint256 c = a + b;\n        return c;\n    }\n}",
  "sourcePath": "/Users/conglin/blockchain/truffle_sample/contracts/Mycontract.sol",
  "compiler": {
    "name": "solc",
    "version": "0.5.8+commit.23d335f2.Emscripten.clang"
  },
  "schemaVersion": "3.0.14",
  "updatedAt": "2019-09-13T03:50:12.817Z",
  "devdoc": {
    "methods": {}
  },
  "userdoc": {
    "methods": {}
  }
}