{
  "contractName": "MyContract",
  "abi": [
    {
      "anonymous": false,
      "inputs": [
        {
          "indexed": false,
          "name": "addr",
          "type": "address"
        }
      ],
      "name": "log",
      "type": "event"
    },
    {
      "constant": false,
      "inputs": [],
      "name": "MyNewContract",
      "outputs": [],
      "payable": false,
      "stateMutability": "nonpayable",
      "type": "function"
    },
    {
      "constant": true,
      "inputs": [
        {
          "name": "a",
          "type": "uint256"
        },
        {
          "name": "b",
          "type": "uint256"
        }
      ],
      "name": "add",
      "outputs": [
        {
          "name": "",
          "type": "uint256"
        }
      ],
      "payable": false,
      "stateMutability": "pure",
      "type": "function"
    }
  ],
  "bytecode": "0x608060405234801561001057600080fd5b50610126806100206000396000f3fe6080604052348015600f57600080fd5b506004361060325760003560e01c8063771602f7146037578063859c9a05146080575b600080fd5b606a60048036036040811015604b57600080fd5b8101908080359060200190929190803590602001909291905050506088565b6040518082815260200191505060405180910390f35b60866095565b005b6000818301905092915050565b7f2c2ecbc2212ac38c2f9ec89aa5fcef7f532a5db24dbf7cad1f48bc82843b742830604051808273ffffffffffffffffffffffffffffffffffffffff1673ffffffffffffffffffffffffffffffffffffffff16815260200191505060405180910390a156fea165627a7a72305820189940754c61bc57c6d461aa1386c35c39390ec54678bc127504c2e2bde688120029",
  "source": "pragma solidity ^ 0.5.8;\ncontract MyContract{\n    event log(address addr);\n    function MyNewContract() public {\n       emit log(address(this));\n    }\n\n    function add(uint256 a, uint256 b) public pure returns(uint256) {\n        return a + b;\n    }\n}",
  "sourcePath": "/Users/conglin/blockchain/smart_contract/contracts/Mycontract.sol",
  "compiler": {
    "name": "solc",
    "version": "0.5.8+commit.23d335f2.Emscripten.clang"
  },
  "schemaVersion": "3.0.14",
  "updatedAt": "2019-08-30T07:38:13.635Z",
  "devdoc": {
    "methods": {}
  },
  "userdoc": {
    "methods": {}
  }
}